{
  "_format": "hh-sol-artifact-1",
  "contractName": "ExampleLogic",
  "sourceName": "contracts/ExampleLogic.sol",
  "abi": [
    {
      "inputs": [
        {
          "internalType": "address",
          "name": "nftContract",
          "type": "address"
        }
      ],
      "stateMutability": "nonpayable",
      "type": "constructor"
    },
    {
      "inputs": [
        {
          "internalType": "address",
          "name": "_origin",
          "type": "address"
        },
        {
          "internalType": "address",
          "name": "_to",
          "type": "address"
        },
        {
          "internalType": "bytes",
          "name": "_data",
          "type": "bytes"
        }
      ],
      "name": "canSponsorTransactionFor",
      "outputs": [
        {
          "internalType": "bool",
          "name": "",
          "type": "bool"
        }
      ],
      "stateMutability": "view",
      "type": "function"
    },
    {
      "inputs": [
        {
          "internalType": "address",
          "name": "_origin",
          "type": "address"
        },
        {
          "internalType": "address",
          "name": "_to",
          "type": "address"
        },
        {
          "internalType": "bytes",
          "name": "_data",
          "type": "bytes"
        }
      ],
      "name": "rateLimitSponsorFor",
      "outputs": [
        {
          "internalType": "uint32",
          "name": "limit",
          "type": "uint32"
        },
        {
          "internalType": "uint32",
          "name": "duration",
          "type": "uint32"
        },
        {
          "internalType": "bytes32",
          "name": "consumer",
          "type": "bytes32"
        },
        {
          "internalType": "bytes32",
          "name": "group",
          "type": "bytes32"
        }
      ],
      "stateMutability": "view",
      "type": "function"
    }
  ],
  "bytecode": "0x608060405234801561001057600080fd5b506040516108813803806108818339818101604052810190610032919061008d565b806000806101000a81548173ffffffffffffffffffffffffffffffffffffffff021916908373ffffffffffffffffffffffffffffffffffffffff160217905550506100ff565b600081519050610087816100e8565b92915050565b60006020828403121561009f57600080fd5b60006100ad84828501610078565b91505092915050565b60006100c1826100c8565b9050919050565b600073ffffffffffffffffffffffffffffffffffffffff82169050919050565b6100f1816100b6565b81146100fc57600080fd5b50565b6107738061010e6000396000f3fe608060405234801561001057600080fd5b50600436106100365760003560e01c8063681a3a521461003b578063921769c21461006b575b600080fd5b610055600480360381019061005091906103c1565b61009e565b6040516100629190610546565b60405180910390f35b6100856004803603810190610080919061042d565b610166565b6040516100959493929190610561565b60405180910390f35b60008060008054906101000a900473ffffffffffffffffffffffffffffffffffffffff1673ffffffffffffffffffffffffffffffffffffffff166370a08231876040518263ffffffff1660e01b81526004016100fa919061052b565b60206040518083038186803b15801561011257600080fd5b505afa158015610126573d6000803e3d6000fd5b505050506040513d601f19601f8201168201806040525081019061014a9190610494565b1115610159576001905061015e565b600090505b949350505050565b6000806000808660405160200161017d9190610510565b60405160208183030381529060405280519060200120915060019350610258925060008060009054906101000a900473ffffffffffffffffffffffffffffffffffffffff1673ffffffffffffffffffffffffffffffffffffffff166370a08231896040518263ffffffff1660e01b81526004016101fa919061052b565b60206040518083038186803b15801561021257600080fd5b505afa158015610226573d6000803e3d6000fd5b505050506040513d601f19601f8201168201806040525081019061024a9190610494565b111561027c577fbc3101643deefa8009088760dce239a7761a55b4d9e77a837f93df6db2491fc59050600a9350600a92505b3073ffffffffffffffffffffffffffffffffffffffff168673ffffffffffffffffffffffffffffffffffffffff1614156102dc577fb35cf3382986816738394d7998b4f3fd1f6d1fc7b3db5dd118ecac21f2e90d739150600a9350603c92505b93509350935093565b60006102f86102f3846105cb565b6105a6565b90508281526020810184848401111561031057600080fd5b61031b84828561065e565b509392505050565b6000813590506103328161070f565b92915050565b60008083601f84011261034a57600080fd5b8235905067ffffffffffffffff81111561036357600080fd5b60208301915083600182028301111561037b57600080fd5b9250929050565b600082601f83011261039357600080fd5b81356103a38482602086016102e5565b91505092915050565b6000815190506103bb81610726565b92915050565b600080600080606085870312156103d757600080fd5b60006103e587828801610323565b94505060206103f687828801610323565b935050604085013567ffffffffffffffff81111561041357600080fd5b61041f87828801610338565b925092505092959194509250565b60008060006060848603121561044257600080fd5b600061045086828701610323565b935050602061046186828701610323565b925050604084013567ffffffffffffffff81111561047e57600080fd5b61048a86828701610382565b9150509250925092565b6000602082840312156104a657600080fd5b60006104b4848285016103ac565b91505092915050565b6104c6816105fc565b82525050565b6104dd6104d8826105fc565b61069e565b82525050565b6104ec8161060e565b82525050565b6104fb8161061a565b82525050565b61050a8161064e565b82525050565b600061051c82846104cc565b60148201915081905092915050565b600060208201905061054060008301846104bd565b92915050565b600060208201905061055b60008301846104e3565b92915050565b60006080820190506105766000830187610501565b6105836020830186610501565b61059060408301856104f2565b61059d60608301846104f2565b95945050505050565b60006105b06105c1565b90506105bc828261066d565b919050565b6000604051905090565b600067ffffffffffffffff8211156105e6576105e56106c2565b5b6105ef826106f1565b9050602081019050919050565b600061060782610624565b9050919050565b60008115159050919050565b6000819050919050565b600073ffffffffffffffffffffffffffffffffffffffff82169050919050565b6000819050919050565b600063ffffffff82169050919050565b82818337600083830152505050565b610676826106f1565b810181811067ffffffffffffffff82111715610695576106946106c2565b5b80604052505050565b60006106a9826106b0565b9050919050565b60006106bb82610702565b9050919050565b7f4e487b7100000000000000000000000000000000000000000000000000000000600052604160045260246000fd5b6000601f19601f8301169050919050565b60008160601b9050919050565b610718816105fc565b811461072357600080fd5b50565b61072f81610644565b811461073a57600080fd5b5056fea2646970667358221220e81109ad17f548cf54738413b90ea0f754ae2ac8a8ac76ed5a20d7126258099f64736f6c63430008040033",
  "linkReferences": {},
  "deployedLinkReferences": {}
}