{
  "_format": "hh-sol-artifact-1",
  "contractName": "Sponsorship",
  "sourceName": "contracts/Sponsorship.sol",
  "abi": [
    {
      "inputs": [],
      "stateMutability": "nonpayable",
      "type": "constructor"
    },
    {
      "inputs": [
        {
          "internalType": "address",
          "name": "_origin",
          "type": "address"
        },
        {
          "internalType": "address",
          "name": "_to",
          "type": "address"
        },
        {
          "internalType": "bytes",
          "name": "_data",
          "type": "bytes"
        }
      ],
      "name": "canSponsorTransactionFor",
      "outputs": [
        {
          "internalType": "bool",
          "name": "",
          "type": "bool"
        }
      ],
      "stateMutability": "view",
      "type": "function"
    },
    {
      "inputs": [
        {
          "internalType": "address",
          "name": "_origin",
          "type": "address"
        },
        {
          "internalType": "address",
          "name": "_to",
          "type": "address"
        },
        {
          "internalType": "bytes",
          "name": "_data",
          "type": "bytes"
        }
      ],
      "name": "rateLimitSponsorFor",
      "outputs": [
        {
          "internalType": "uint32",
          "name": "limit",
          "type": "uint32"
        },
        {
          "internalType": "uint32",
          "name": "duration",
          "type": "uint32"
        },
        {
          "internalType": "bytes32",
          "name": "consumer",
          "type": "bytes32"
        },
        {
          "internalType": "bytes32",
          "name": "group",
          "type": "bytes32"
        }
      ],
      "stateMutability": "view",
      "type": "function"
    }
  ],
  "bytecode": "0x608060405234801561001057600080fd5b506104f1806100206000396000f3fe608060405234801561001057600080fd5b50600436106100365760003560e01c8063681a3a521461003b578063921769c21461006b575b600080fd5b610055600480360381019061005091906101b3565b61009e565b60405161006291906102e5565b60405180910390f35b6100856004803603810190610080919061021f565b6100ac565b6040516100959493929190610300565b60405180910390f35b600060019050949350505050565b600080600080866040516020016100c391906102ca565b604051602081830303815290604052805190602001209150600a9350600a925093509350935093565b60006100ff6100fa8461036a565b610345565b90508281526020810184848401111561011757600080fd5b6101228482856103f3565b509392505050565b600081359050610139816104a4565b92915050565b60008083601f84011261015157600080fd5b8235905067ffffffffffffffff81111561016a57600080fd5b60208301915083600182028301111561018257600080fd5b9250929050565b600082601f83011261019a57600080fd5b81356101aa8482602086016100ec565b91505092915050565b600080600080606085870312156101c957600080fd5b60006101d78782880161012a565b94505060206101e88782880161012a565b935050604085013567ffffffffffffffff81111561020557600080fd5b6102118782880161013f565b925092505092959194509250565b60008060006060848603121561023457600080fd5b60006102428682870161012a565b93505060206102538682870161012a565b925050604084013567ffffffffffffffff81111561027057600080fd5b61027c86828701610189565b9150509250925092565b6102976102928261039b565b610433565b82525050565b6102a6816103ad565b82525050565b6102b5816103b9565b82525050565b6102c4816103e3565b82525050565b60006102d68284610286565b60148201915081905092915050565b60006020820190506102fa600083018461029d565b92915050565b600060808201905061031560008301876102bb565b61032260208301866102bb565b61032f60408301856102ac565b61033c60608301846102ac565b95945050505050565b600061034f610360565b905061035b8282610402565b919050565b6000604051905090565b600067ffffffffffffffff82111561038557610384610457565b5b61038e82610486565b9050602081019050919050565b60006103a6826103c3565b9050919050565b60008115159050919050565b6000819050919050565b600073ffffffffffffffffffffffffffffffffffffffff82169050919050565b600063ffffffff82169050919050565b82818337600083830152505050565b61040b82610486565b810181811067ffffffffffffffff8211171561042a57610429610457565b5b80604052505050565b600061043e82610445565b9050919050565b600061045082610497565b9050919050565b7f4e487b7100000000000000000000000000000000000000000000000000000000600052604160045260246000fd5b6000601f19601f8301169050919050565b60008160601b9050919050565b6104ad8161039b565b81146104b857600080fd5b5056fea26469706673582212208e48083604f7865877a018f892acfd2c8d3e96cfc122556c101d0952e4e46b1664736f6c63430008040033",
  "linkReferences": {},
  "deployedLinkReferences": {}
}